:020000040800F2
:100000007007002001010008E7220008931D000886
:10001000E522000881080008FD2600080000000015
:100020000000000000000000000000000B2300089A
:100030008308000800000000092300080D230008C1
:100040001B0100081B0100081B0100081B01000820
:100050001B0100081B0100081B0100081B01000810
:100060001B0100081B0100081B0100081B01000800
:100070001B0100081B0100081B0100081B010008F0
:100080001B0100081B0100081B0100081B010008E0
:100090001B0100081B0100081B0100081B010008D0
:1000A0001B0100081B0100081B0100081B010008C0
:1000B0001B0100081B0100081B0100081B010008B0
:1000C0001B0100081B0100081B0100081B010008A0
:1000D0001B0100081B010008DD2600081B010008A9
:1000E000850800081B0100081B010008DFF80CD080
:1000F00000F056FB00480047FD2B00087007002069
:100100000648804706480047FEE7FEE7FEE7FEE7B1
:10011000FEE7FEE7FEE7FEE7FEE7FEE799230008BD
:10012000ED000008202A04DB203A21FA02F0002129
:10013000704721FA02F3D040C2F1200291400843F7
:100140001946704740EA01039B0703D009E008C93C
:10015000121F08C0042AFAD203E011F8013B00F88C
:10016000013B521EF9D27047F0B480EA0102D40F6D
:100170004200B2EB410F02D20246084611464A0045
:1001800042D0C30DDDB2C1F3C752AD1A202D35DA0E
:10019000C1F3160141F4000204B15242C5F1200638
:1001A00002FA06F12A411044B3EBD05F23D0C4B168
:1001B000012DA0EBC35009DCF0BC4FF0004202EA75
:1001C000C352DBB200F5000000F05EBA400000F15F
:1001D000807000EBC350A0F1807040EAD1704900FC
:1001E00009E0490841EAC071A0EBC35000F50000E6
:1001F000400800EBC350F0BC00F03DBA6142012260
:1002000002EB4101001BF6E7F0BC704781F00041B2
:10021000AAE780F00040A7E72DE9FE4F804681EA7B
:100220000300C00F0C46009021F0004123F0004570
:10023000B8EB0200A94105D24046214690461C4633
:100240000B46024623F00040104347D0270DC7F36A
:100250000A00C3F30A510290401A019040286BDA59
:10026000C3F3130040F4801B0098924620B1002392
:10027000D2EB030A63EB0B0B01985946C0F1400225
:10028000504600F0D7F906460D4650465946019AA9
:1002900000F0DFF910EB08006141002487EA1152F9
:1002A00084EAE7731A4340D0009A62B3019A012AA4
:1002B0004FEA075215DC001B61EB02014FF00042D0
:1002C00002EA0752CDE90042001C41F58011324696
:1002D0002B4600F016FA03B0BDE8F08F40462146E9
:1002E000F9E7001B61EB0201001C41F580130018C7
:1002F0005B412018A2F5001747EB030140EAD570D7
:10030000B6196D4111E06D084FEA360645EAC07531
:100310004FEA0752001B61EB0201001C41F58011FE
:1003200049084FEA30000019514132462B4603B0CC
:10033000BDE8F04F00F0D6B900980122400000233C
:10034000D0EB020263EBE073009821464FEAE074C1
:10035000B8EB000061EB0401E9E783F000435BE7E1
:1003600081F0004158E72DE9FE4F81EA030404F0D3
:10037000004421F0004100944FF0000B23F00043B3
:1003800050EA01045ED052EA03045BD0C3F30A547E
:10039000C1F30A552C44A4F2F3340194A0FB025497
:1003A000C1F3130141F48011C3F3130343F4801329
:1003B00001FB024400FB034E840A970A44EA81547D
:1003C00047EA8357A4FB076802958D0A05FB07855A
:1003D0004FEA932C04FB0C542705029D4FEA065864
:1003E00047EA1637B5EB08056EEB070C870E920E41
:1003F00047EA811742EA8312A7FB0201B6EB0B0121
:1004000064EB00042B0D43EA0C335E1844EB1C50E4
:10041000DA465146E7FB0201C5F313044FEA0B33FA
:1004200043EA14534FEA0432019C43EA0603A4F161
:100430000C040294009CCDE900B400F062F903B012
:10044000BDE8F08F00200146F9E72DE9F04D81EA83
:10045000030404F0004B21F0004514464FF0000A5D
:1004600023F0004150EA050220D054EA01021DD0D9
:10047000C5F30A570246C5F31303C1F31300C1F3D2
:100480000A5640F4801543F48013A7EB0608101BAE
:10049000D64608F2FD3873EB050002D308F10108D7
:1004A00001E092185B41B8F1000F03DA0020014629
:1004B000BDE8F08D00204FF48011064684460EE022
:1004C000171B73EB050705D3121B63EB05030643EC
:1004D0004CEA010C49084FEA300092185B4150EA9F
:1004E0000107EDD152EA030012D082EA040083EA48
:1004F0000501084305D0101BAB4106D201220023A1
:1005000006E000224FF0004302E06FF001025310BA
:100510001AEB06004CEB085110EB0A0041EB0B0103
:10052000BDE8F04D00F0DEB80EB5C10F80EAE07016
:100530000844CA07002140F233438DE80E000A4602
:100540000B4600F0DEF803B000BD0EB540F23341BB
:1005500002910021CDE900110A460B4600F0D1F8C6
:1005600003B000BD20F00040C10DC0F3160040F400
:1005700000007F2901DA00207047962903DCC1F1D1
:100580009601C840704796398840704770B5C1F3EE
:100590000A5201F000450024C1F3130140F2FF3379
:1005A00041F480119A4201DA002070BD40F23343D9
:1005B0009A42A2F2334203DC5242FFF7B3FD00E05D
:1005C00090402C43F1D0404270BDC1F30A5210B5A7
:1005D000C1F3130140F2FF3341F480119A4201DA72
:1005E000002010BD40F233439A42A2F2334203DCB2
:1005F0005242FFF797FD10BD904010BD01F000433F
:1006000030B421F0004150EA010206D00A0DA2F5F3
:100610006072C1F31301002A02DC30BC0020704775
:10062000440F44EAC104C100E01830BC00EBC250E2
:1006300000F021B8202A04DB203A00FA02F1002061
:1006400070479140C2F1200320FA03F31943904010
:100650007047202A06DBCB17203A41FA02F043EA22
:10066000E07306E041FA02F3D040C2F1200291406B
:100670000843194670470029A8BF7047401C49002D
:1006800008BF20F00100704710B4B0FA80FC00FAF7
:100690000CF050EA010404BF10BC704749B1CCF122
:1006A000200421FA04F411FA0CF118BF01212143AE
:1006B0000843A3EB0C01CB1D4FEA00614FEA102069
:1006C00042BF002010BC704700EBC350104400290B
:1006D000A4BF10BC7047401C490008BF20F00100B7
:1006E00010BC704710B5141E73F1000408DA401CEA
:1006F00041F1000192185B411A4301D120F0010041
:1007000010BD2DE9F04D92469B4611B1B1FA81F230
:1007100002E0B0FA80F220329046FFF78BFF0446E9
:100720000F4640EA0A0041EA0B0153465A46084385
:1007300013D0114653EA010019D0C8F140025046C7
:10074000FFF7F0FC05460E46504659464246FFF775
:1007500071FF084305D0012004E020463946BDE87A
:10076000F08D0020054346EAE0762C4337430A9893
:100770006305E40AA0EB08000022FD0A44EA47549E
:100780000A3002D500200146E9E701051019694148
:10079000DDE9084500196941BDE8F04DA2E7000018
:1007A000064C074D06E0E06840F0010394E80700BE
:1007B00098471034AC42F6D3FFF79CFC183200087F
:1007C0003832000870B5044600688168C943C9071B
:1007D0001CD1816821F00101816000F037FB0546E2
:1007E0000FE000BF00F032FB401B022809D9A06ACD
:1007F00040F01000A062E06A40F00100E0620120D9
:1008000070BD20688068C043C007EBD0002070BD79
:10081000F8B500260446009600688168C943C907F8
:1008200028D0816841F001018160134813490068B4
:10083000B0FBF1F000E0401E00900028FBD100F07A
:1008400005FB054611E000BF00F000FB401B02283D
:100850000BD9A06A40F01000A062E06A40F00100ED
:10086000E06284F824600120F8BD20688068C043FD
:10087000C007E9D10020F8BD2400002040420F004D
:10088000FEE770474FF4804000F0F0B9F8B500245F
:10089000009490F824202546012A12D0012280F8E5
:1008A00024204A681F23072A0DD20668776B521E40
:1008B00002EB820293409F430B6893401F43776390
:1008C00019E00220F8BD06680D2A0AD2376BD21F44
:1008D00002EB820293409F430B6893401F433763B0
:1008E00009E0F76A0D3A02EB820293409F430B68DE
:1008F00093401F43F7620A68072306680A2A0AD34F
:10090000F7680A3A02EB420293409F438B68934098
:100910001F43F76008E0376902EB420293409F43B0
:100920008B6893401F4337610A68102A01D0112A4F
:1009300020D1124B02689A4217D193681B0219D436
:10094000936843F4000393600968102912D10C499D
:100950000C4A0968B1FBF2F101EB8101490000E0AA
:10096000491E00910029FBD104E0816A41F0200179
:100970008162012480F824502046F8BD0024014003
:100980002400002040420F000068C06C7047000047
:100990002DE9F0414FF0000704003D467ED0A06AEB
:1009A000002628B9E66284F82460204600F07EF82C
:1009B0002046FFF707FFA16AC90600D420B1A06A4C
:1009C00040F01000A06269E0A16A21F4885141F072
:1009D0000201A1626268E169E3680A4347EA4301F0
:1009E0000A43A1684FF48077B94209D0012907D0A2
:1009F0005FF00001D4F814C0BCF1010F02D00AE08E
:100A00003946F7E7F3B1A36A43F02003A362E36A30
:100A100043F00103E3622368D3F804C02CF4694C6B
:100A20004CEA010CC3F804C021688B68DFF870C081
:100A300003EA0C0313438B60A168B9420BD0012970
:100A400009D00CE0DFF85CC0A3690CEB43330B4327
:100A500043F40061DFE7218A0D05A5F580152168C3
:100A6000CB6A23F470032B43CB62216889680E4B59
:100A70001940914208D1E662A16A21F0020141F0D9
:100A80000101A162BDE8F081A06A20F0020040F0FF
:100A90001000A062E06A40F00100E0620120F1E78E
:100AA000FDF7E1FF00E0FFFFFE0E1FFF00B500684D
:100AB0000B4985B0884210D10A48816941F4007120
:100AC00081618069694600F4007004900120009003
:100AD00003200190044800F0D5F805B000BD0000E7
:100AE00000240140001002400008014070B5044697
:100AF00090F8240001280DD0012084F8240020461D
:100B0000FFF786FE02004FF0000005D084F82400B5
:100B1000104670BD022070BDA16A40F201239943C6
:100B200041F48071A1621F4D23681F49AB4218D167
:100B30000E6816F4702F14D0A66A46F48016A662CA
:100B40000E68760505D5A66A26F4005646F480564A
:100B5000A662A66AF6040AD5E66A26F00606E662EA
:100B600006E0A66A26F48016A6625E68E9E7E062FF
:100B700084F824006FF00200186020688368C3F3D3
:100B80004243072B05D1A84208D1096811F4702F00
:100B900004D0816841F480118160B9E7816841F433
:100BA000A001F9E7002801400424014010B590F8A5
:100BB00021100024022903D00421816301243DE097
:100BC00001680A6822F00E020A6001680A6822F0D1
:100BD00001020A601A4A0168914201D1012121E013
:100BE000174A1432914201D110211BE0144A2832D5
:100BF000914201D1891515E0114A3C32914201D14F
:100C000089140FE00E4A5032914202D14FF48031E4
:100C100008E00B4A6432914202D14FF4801101E0A6
:100C20004FF08071064A083A5160012180F8211086
:100C3000002180F82010416B01B18847204610BD8B
:100C40000800024070B5044600F000F90546601C3B
:100C500002D004480078044400F0F8F8401BA04299
:100C6000FAD370BD0000002070470000044910B5A1
:100C70000A68024202D00860FFF7F6FF10BD0000CC
:100C8000140401402DE9F84FDFF890A100220AF189
:100C9000040B144601274FF00F090BF1040E00BF9F
:100CA0000B6807FA04F52B40AB4274D1DFF870C132
:100CB0004E68A6EB0C0866452BD00DDC032E34D015
:100CC00005DC36B3012E19D0022E2FD11BE0112ED8
:100CD00016D0122E2AD119E0B8F5881F19D006DCDB
:100CE000B8F5803F15D0B8F5801F1FD111E0B8F5D9
:100CF000001F0ED0B8F5041F18D10AE0CA6815E02D
:100D0000CA68121D12E0CA6808320FE0CA680C32C5
:100D10000CE08A682AB1012A4FF0080203D045612D
:100D200004E0042202E0056100E00022FF2B01D86C
:100D3000064601E000F104064FEA840501D9A5F159
:100D40002005D6F800C009FA05F82CEA080C02FACA
:100D500005F54CEA050CC6F800C04D68ED0057D506
:100D6000304DAE6946F00106AE61AD6924F0030670
:100D700005F0010500952C4D06EB050CDCF808503C
:100D8000A6074FEA167809FA08F6B543274EB0428F
:100D900002D1002610E03BE0254EB04201D10126F1
:100DA0000AE0244EB04201D1022605E0224EB042B4
:100DB00001D1032600E0042606FA08F62E43CCF8FB
:100DC00008604D68DAF80060ED03554601D51E4312
:100DD00000E09E432E604D68DBF80060AD035D4689
:100DE00001D51E4300E09E432E604D68DEF8006092
:100DF000ED02754601D51E4300E09E432E604D680E
:100E0000AD020E4D2E6801D51E4300E09E432E60BC
:100E1000641C102CFFF444AFBDE8F88F00040140BF
:100E200000001110001002400000014000080140C5
:100E3000000C014000100140001401400C0401406E
:100E40000AB1016170470904FBE7000001488068AE
:100E5000704700000000002070B504001BD094F81B
:100E60003D00002520B984F83C50204600F042FAAD
:100E7000242084F83D002068016821F00101016010
:100E800000F038FC404A6168914201D83F4900E0D7
:100E90003F49884201D2012070BD3E492368B0FB22
:100EA000F1F159606368934206D94FF49673594340
:100EB0004FF47A73B1FBF3F12368491C196261683E
:100EC000914210D84900401EB0FBF1F2521CC2F30F
:100ED0000B02042A01D2042022E0B0FBF1F0401CF6
:100EE000C0F30B001CE0A368CBB301EBC10202EB23
:100EF0000116421EB2FBF6F2521C42F48042120569
:100F000036D06BB301EBC10202EB0111401EB0FB06
:100F1000F1F0401CC0F30B0040F4804040F400406E
:100F20002168C861D4E90701084321680860D4E951
:100F30000310084321688860D4E90501084321684B
:100F4000C8602068016841F001010160256420202B
:100F500084F83D00256384F83E50002070BD00E019
:100F600008E001EB4106421EB2FBF6F2521CC6E756
:100F70000120D5E701EB4101401EB0FBF1F0401C20
:100F8000C0F30B00CAE70000A086010080841E00A9
:100F900000093D0040420F002DE9FF4F83B09A4603
:100FA000DDE9118793460446DDF84090FFF74EFFD8
:100FB000054694F83D00202872D1192301227B496F
:100FC0002046009500F0E9FF0028F5D194F83C0098
:100FD000012865D0012084F83C0020680168C90719
:100FE00003D1016841F0010101602068016821F42A
:100FF00000610160222084F83D00402084F83E001A
:1010000000262664C4F82490A4F82A806848E06288
:10101000608D2085CDE9007553465A4620460499D7
:1010200000F0CCFE28B1206C84F83C60042851D03C
:1010300075E0208DDFF87C8168B1012814D002288A
:10104000206801681ED041F4806101602068416918
:10105000806900909BE02068416981690091016886
:1010600041F40071016092E02068016821F4806120
:10107000016072B62068416981690091016841F49C
:1010800000710AE041F40061016072B620684169B4
:1010900081690091016821F48061016062B676E0A7
:1010A00081E0032850D801280BD002283B464FF09E
:1010B000000241462046009512D000F06EFF70BB42
:1010C00013E02A463946204600F0DCFF30B1206CA0
:1010D000202824D0012007B0BDE8F08F20684BE025
:1010E00000F05BFFD8B972B61BE02068016821F4FC
:1010F0008061016072B620680169606A421C6262A8
:101100000170208D401E2085608D401E60853B460D
:10111000002241462046009500F03FFF08B1032021
:10112000D9E72068016841F4007101602068016915
:10113000606A421C62620170208D401E2085608DB5
:10114000401E608562B6C9E72A463946204600F04F
:1011500099FF0028BBD120680169606A421C626265
:101160000170208D401E2085608D401E60852068A6
:101170004169C94349070AD40169606A421C626235
:101180000170208D401E2085608D401E6085208D61
:10119000002886D1202084F83D0084F83E6084F841
:1011A0003C60002097E7022095E700000200100055
:1011B0000000FFFF040001002DE9FF4F83B09A46B5
:1011C000DDE9118793460446DDF84090FFF73EFEC7
:1011D000064694F83D0020287DD119230122434979
:1011E0002046009600F0D9FE00287CD194F83C00FF
:1011F000012878D0012084F83C0020680168C907E4
:1012000003D1016841F0010101602068016821F407
:1012100000610160212084F83D00402084F83E00F8
:1012200000252564C4F82490A4F82A803048E062A0
:10123000608D2085CDE9007653465A4620460499B4
:1012400000F034FE80B3206C84F83C50042848D071
:1012500008E032463946204600F045FF30B1206CA8
:10126000042839D0032007B0BDE8F08F606A411C24
:101270006162216800780861208D401E80B220855F
:10128000618D491E618521684A69D24352070BD49A
:1012900068B1606A421C626200780861208D401E5D
:1012A0002085608D401E6085208D0028D1D132467A
:1012B0003946204600F04AFE0028D0D154F83D0BB4
:1012C000016841F400710160202004F81E09E577EF
:1012D00065770020C7E706E02068016841F40071E7
:1012E00001600120BFE70220BDE7000002001000FE
:1012F0000000FFFF00B500680C4985B0884213D19B
:101300004FF4406000901220019003200390694642
:101310000748FFF7B7FC0748C16941F48001C16184
:10132000C06900F48000049005B000BD0058004082
:10133000000C01400010024002488168027811440C
:101340008160704700000020074810B5016841F037
:1013500010010160032000F095F8002000F006F86D
:1013600000F024F8002010BD0020024070B50D4DA3
:1013700004464FF47A712878B1FBF0F00A49096805
:10138000B1FBF0F000F09FFB48B9102C07D200220F
:101390002146501E00F056F800206C6070BD012000
:1013A00070BD000000000020240000201D4808B58A
:1013B000816941F001018161806900F001000090C4
:1013C000032000F05FF8002211466FF00B0000F0E0
:1013D00039F8002211466FF00A0000F033F80022BD
:1013E00011466FF0090000F02DF800221146501F41
:1013F00000F028F800221146101F00F023F8002208
:101400001146901E00F01EF800221146501E00F0FA
:1014100019F80548416821F0E06141F00071416030
:1014200008BD0000001002400000014000F01F0253
:10143000012191404009800000F1E020C0F8001136
:1014400070470000F0B40E4B1B680C46C3F3022338
:10145000C3F10705042D00D90425191D072901D260
:10146000002300E0DB1E012606FA05F1491E21409B
:1014700099409E40761E16403143F0BC00F034BFC8
:101480000CED00E0064900F0070208684FF6FF0384
:10149000184040EA0220034A1043086070470000E9
:1014A0000CED00E00000FA052DE9F8430546007850
:1014B000354CC00754D0E0690026C00008D4E0696C
:1014C00040F08050E061E069012600F0805000901B
:1014D0002E480168C90512D40168804641F4807124
:1014E0000160FFF7B3FC074605E000BFFFF7AEFC65
:1014F000C01B642823D8D8F80000C005F6D5206AA0
:1015000010F4407021D0A98801F4407181421CD0B0
:10151000206A1F49012220F440700A6000220A60FC
:101520002062C00711D0FFF791FC074641F28838CE
:1015300008E000BFFFF78AFCC11B414502D9032028
:10154000BDE8F883206A8007F4D5206A696820F432
:101550004070084320621EB1E06920F08050E061D5
:101560002878800705D56068A96820F440400843C2
:1015700060602878C00605D56068E96820F48000BE
:10158000084360600020DBE700100240007000406C
:10159000400442422DE9F047DFF83C8105460E4603
:1015A000D8F8000000F00700B0420CD2D8F80010C4
:1015B00021F007013143C8F80010D8F8000000F00E
:1015C0000700B04263D12878444C800705D5606895
:1015D000A96820F0F000084360602878C00745D073
:1015E0006868012816D02168022816D089070029CA
:1015F0004DDA616821F0030101436160FFF726FCC9
:101600006968074641F2883001290FD002298146D6
:1016100019D027E021688903E9E78901E7E700BFDE
:10162000FFF714FCC11B494501D918E081466068E9
:10163000C0F381000128F3D118E000BFFFF706FCDA
:10164000C11B49450BD86068C0F381000228F5D161
:101650000CE000BFFFF7FAFBC11B494502D903208C
:10166000BDE8F087606810F00C0FF3D1D8F80010D7
:10167000404601F00701B1420BD9016821F0070192
:1016800031430160006800F00700B04201D0012042
:10169000E6E72878400705D56068E96820F4E0604F
:1016A000084360602878000706D56068296920F43F
:1016B000605040EAC100606000F03CF86168084A90
:1016C000C1F30311515CC840064908600020FFF7D0
:1016D0004DFE0020C4E70000002002400010024040
:1016E0000032000824000020014800687047000014
:1016F000240000200448054900684968044AC1F3F1
:101700000221515CC84070472400002000100240B4
:10171000103200080448054900684968044AC1F3CA
:10172000C221515CC84070472400002000100240D4
:101730001032000813A185B00FC98DE80F0015A065
:10174000154A00680490516801F00C00042804D088
:10175000082804D0114805B070471148FBE7C1F3D1
:101760008343C9031DF8030009D5516804AAC1F3D6
:101770004041515C0A4A5043B0FBF1F0EBE70949A4
:101780004843E8E702030405060708090A0B0C0DA5
:101790000E0F1010010200000010024000127A002B
:1017A0000024F40000093D002DE9F84F04460078BC
:1017B000B94DC00748D06868C0F38100012807D040
:1017C0006868C0F38100022809D16868C00306D5A3
:1017D0002868800338D5606800286FD034E06068DE
:1017E000B0F5803F0BD010B1B0F5A02F11D0286814
:1017F00020F480302860286820F4802002E02868E7
:1018000040F480302860606888B1FFF71FFB06460F
:1018100009E0286840F480202860F0E7FFF716FB15
:10182000801B642875D828688003F7D50CE0FFF783
:101830000DFB064605E000BFFFF708FB801B642890
:10184000F0D828688003F7D42078944E80074FF0B2
:1018500001094FF000083BD5686810F00C0F07D065
:101860006868C0F38100022809D16868C00306D403
:101870002868800714D5206901281FD110E020694D
:10188000B0B1C6F80090FFF7E1FA074605E000BFE7
:10189000FFF7DCFAC01B0228C4D828688007F7D5F8
:1018A0002868616920F0F80040EAC10028600FE074
:1018B000C6F80080FFF7CAFA074606E0E9E000BF75
:1018C000FFF7C4FAC01B022823D828688007F7D482
:1018D000207800072CD57248A169D9B1C0F80090D2
:1018E000FFF7B4FA074604E0FFF7B0FAC01B02287E
:1018F0000FD8686A8007F7D56A484FF4FA51006834
:10190000B0FBF1F0009000BF0098411E0091FAD2A8
:101910000EE080E0C0F80080FFF798FA074604E088
:10192000FFF794FAC01B022875D8686A8007F7D4BD
:101930002078400760D5E8690027C00008D4E8692E
:1019400040F08050E861E869012700F08050009085
:1019500055480168C90513D40168834641F4807174
:101960000160FFF773FA824606E000BFFFF76EFAE8
:10197000A0EB0A0064284ED8DBF80000C005F5D5BE
:10198000E06801280AD008B1052813D0286A20F0A1
:1019900001002862286A20F0040002E0286A40F072
:1019A00001002862E06841F2883B98B1FFF74EFAE7
:1019B00082460BE0286A40F004002862EEE700BF90
:1019C000FFF744FAA0EB0A0159455AD8286A800764
:1019D000F6D50CE0FFF73AFA824605E0FFF736FA53
:1019E000A0EB0A0159454CD8286A8007F6D41FB1EC
:1019F000E86920F08050E861E06988B36968C1F364
:101A00008101022945D00228C6F8608004D0FFF782
:101A10001DFA044638E034E0FFF718FA074604E000
:101A2000FFF714FAC01B02282BD828688001F7D4CE
:101A3000206AB0F5803F05D16868A16820F40030C5
:101A400008436860D4E908010843696821F4741107
:101A500008436860C6F86090FFF7F8F9044606E0AE
:101A600015E000BFFFF7F2F9001B022809D828682B
:101A70008001F7D50BE000BFFFF7E8F9001B022853
:101A800002D90320BDE8F88F28688001F4D4002033
:101A9000F8E70120F6E70000001002400000424293
:101AA0008004424224000020007000404FF0E021FA
:101AB0000428086903D020F004000861704740F052
:101AC0000400FAE7704710B5401EB0F1807F01D3E3
:101AD000012010BD4FF0E02460610F21601700F07D
:101AE00003FC0020A06107202061002010BD10B57C
:101AF000FFF7E8FF10BD704770B502680446106834
:101B0000D168536910F00F0F50D003F0010501F4B4
:101B1000907635435DD0C20705D0CA0503D5E26B88
:101B200042F00102E263420705D5DA0703D0E26B17
:101B300042F00202E263820705D5DA0703D0E26BC6
:101B400042F00402E263020705D5DA0703D0E26B34
:101B500042F00802E263E26B002A33D0800604D52B
:101B6000880602D5204600F051FC20684069E16BF0
:101B7000C0F38010090700D428B3204600F038FCD9
:101B80002068416949061AD5416921F04001416147
:101B9000606BA0B11B494163606BFFF707F8002839
:101BA00010D0606B416BBDE870400847830610D5CC
:101BB0008B060ED52046BDE8704000F027BC2046BD
:101BC000FFF799FF70BD2046FFF795FF0020E06307
:101BD00070BD030606D50B0604D52046BDE870404F
:101BE00000F018BD4006F3D54806F1D5D16820466F
:101BF00021F04001D160202184F8391000F0C8F8AC
:101C000070BD0000E123000870B5040004D094F812
:101C10003900002510B106E0012070BD84F838506D
:101C2000204600F023F8242084F839002068C16899
:101C300021F40051C160204600F034FC20680169A5
:101C400021F4904101612068416921F02A0141613C
:101C50002068C16841F40051C160E563202084F828
:101C6000390084F83A00002070BD000010B500680B
:101C7000154986B0884224D11448C16941F4003125
:101C8000C161C069124C00F400300490042000903F
:101C9000022001900320039069462046FEF7F2FFE0
:101CA00000210820CDE90001029169462046FEF797
:101CB000E9FF002211462620FFF7C4FB2620FFF78C
:101CC000B5FB06B010BD000000440040001002400B
:101CD0000008014070472DE9F843044690F83900A8
:101CE0001F4616460D46202850D1A5B19EB194F846
:101CF000380001284AD0012084F838004FF000084D
:101D0000C4F83C80212084F83900FFF79FF8A684AE
:101D10008146E68426E00120BDE8F883E08C401E81
:101D2000E084A0684B46B0F5805F4FF000024FF0B2
:101D300080012046009703D000F09DFCE8B90DE03B
:101D400000F099FCC8B928882168C0F308004860F1
:101D5000206908B16D1C05E0AD1C03E0216815F891
:101D6000010B4860E08C0028D8D14B46002240216E
:101D70002046009700F07FFC08B10320CCE720202C
:101D800084F8390084F838800020C5E70220C3E7D2
:101D90007047FEE701684A69D24352050CD46FF4DC
:101DA00080624A6104210164002140F8301F202232
:101DB0004273017301207047002070472DE9F84FEE
:101DC0000446006889460B9D01689846174641F411
:101DD000806101602068016841F4807101600095B4
:101DE0004FF0011A0022514620460A9B00F0D5F818
:101DF000F0BB216809F0FE0008610AF1010B2B46D7
:101E0000594620460A9A00F0F9F818B1206C0428C7
:101E100012D03AE020684169806900902A46204645
:101E20000A9900F060F950B1206C04282DD1206887
:101E3000016841F4007101600120BDE8F88FFEB235
:101E4000B8F1010F09D02168380A08612A462046F6
:101E50000A9900F048F90028E6D1206806612A4670
:101E600020460A9900F03FF90028DDD1206800E003
:101E70000BE0016841F48071016000950022514639
:101E800020460A9B00F089F808B10320D5E72168B5
:101E900009F0FF0040F0010008612B46594620463A
:101EA0000A9A00F0ABF80028B0D1C6E72DE9F84354
:101EB000044600680D46DDE9089701689846164615
:101EC00041F4807101604B4600224FF00111204621
:101ED000009700F062F8E8B9216805F0FE0008619B
:101EE0003B464A461849204600F088F828B1206C45
:101EF00004280FD10120BDE8F8832068416980697A
:101F000000903A464946204600F0EDF820B1206C9A
:101F1000042813D00320EEE7F5B2B8F1010F09D081
:101F20002168300A08613A464946204600F0DBF84D
:101F30000028ECD1206805610020DCE720680168FA
:101F400041F400710160D5E70200010070B516464A
:101F50000D4604461AE02046FFF71CFF08B1012099
:101F600070BD681C12D025B1FEF770FF801BA8421F
:101F70000CD954F8400F40F0200044F8100900201C
:101F80002060202161732073032070BD20684069A8
:101F9000C0434007DFD4002070BD2DE9F0471E4646
:101FA00090460D460446C1F30747DDF8209012E045
:101FB000701C10D02EB1FEF749FFA0EB0900B04213
:101FC00009D9002044F8300F20216173A0732073D9
:101FD0000320BDE8F0872068012F0AD0806925EA38
:101FE00000000004000C06D000214145E0D0002094
:101FF000EFE74069F3E70121F7E700002DE9F0473B
:102000009A4691460D46044600264FF02008C1F33B
:1020100007472AE020684069C043400512D4206881
:10202000016841F40071016021686FF480604861CB
:1020300004202064266384F83D8084F83C600120FD
:10204000BDE8F087B9F1FF3F0FD0B9F1000F05D01F
:10205000FEF7FCFEA0EB0A01494506D944F8306FB3
:1020600084F80D8026730320EAE72068012F07D04B
:10207000D0F8180025EA00000004000CE0D0C9E701
:102080004069F7E72DE9F041002590460E460446E9
:10209000202721E04069C043C0060CD421686FF0BE
:1020A000100048612564256384F83D7084F83C5035
:1020B0000120BDE8F0812EB1FEF7C8FEA0EB0800BC
:1020C000B04209D954F8400F40F0200044F8040908
:1020D000677025700320ECE720684169C943490611
:1020E000D8D40020E5E770B516460D4604461AE040
:1020F0002046FFF74FFE08B1012070BD681C12D0CA
:1021000025B1FEF7A3FE801BA8420CD954F8400F5E
:1021100040F0200044F81009002020602021617365
:102120002073032070BD20684069C0430006DFD4DF
:10213000002070BD3EB50F4800240D498460C46086
:1021400044610160012505614FF460214460C16173
:10215000FEF71EFC00B1FEE7CDE9004569460548E3
:102160000294FEF793FB002800D0FEE73EBD00007E
:1021700000240140280000202DE9F043274885B0C5
:10218000816941F010018161816901F010010491C0
:10219000816941F020018161816901F02001049190
:1021A000816941F00401816180691D4F00F00400E4
:1021B0004FF400540490002221463846FEF740FEBA
:1021C000DFF8608048F2F006002231464046FEF714
:1021D00037FEDFF85490002248F23B014846FEF7F4
:1021E0002FFE009401240225694638460395019488
:1021F000FEF748FDCDE90064694640460395FEF7C9
:1022000041FD48F2FB30CDE900046946039548469C
:10221000FEF738FD05B0BDE8F08300000010024075
:102220000010014000080140000C0140194800B5B1
:10223000C16985B041F48001C161C16901F48001C7
:102240000491816941F0080181618069694600F06B
:10225000080004904FF4406000901220019002208A
:1022600003900D48FEF70EFD0D480C494FF48042D7
:1022700001600C49416000218160C0E903124161A5
:102280008161C1610162FEF7E7FD002800D0FEE731
:1022900005B000BD00100240000C01400058004095
:1022A00058000020A086010010B50D4C0B480C21F1
:1022B00020604FF4E13060600020A060E060C4E97D
:1022C0000401A061E0612046FFF79EFC00B1FEE73B
:1022D0002068C16841F02001C16010BD0044004089
:1022E000AC000020FEE770470907090E002806DA57
:1022F00000F00F0000F1E02080F8141D704700F19D
:10230000E02080F8001470477047704710B5FFF761
:1023100013F8BDE81040FFF7EABB10B5012194B0F7
:102320000804CDE900104200029202240491CDE994
:1023300007404FF4E01009906846FFF735FA00B106
:10234000FEE70F20CDE90A0400204FF48061CDE9BB
:102350000C010E9002210AA8FFF71CF900B1FEE75C
:102360004FF4004011900F940FA8FFF79DF800B1B3
:10237000FEE7FFF7B9F94FF47A71B0FBF1F0FFF720
:10238000A2FB0420FFF792FB00221146501EFFF72C
:1023900059F814B010BD00000D48016841F001016A
:1023A000016041680B4A1140416001680A4A1140CE
:1023B0000160016821F480210160416821F4FE017F
:1023C00041604FF41F0181600449C00308607047F9
:1023D000001002400000FFF8FFFFF6FE08ED00E0ED
:1023E00010B5406A0021C185C184FFF784FB10BD90
:1023F0000168CA6822F49072CA6001684A6922F0D2
:1024000001024A61202180F83A10704710B590F817
:102410003A10222901D0022010BD8168B1F5805FF9
:1024200011D00169002901681FD0496801F07F03BC
:10243000816A4A1C82620B70C18D491E0904090C15
:10244000C18518D02BE00269816A002A02685268AF
:1024500005D0D2B20A80816A491C8162ECE7C2F3DE
:1024600008020A80816A891CF7E74A68816A4B1C66
:1024700083620A70E0E70168CA6822F02002CA603D
:102480000168CA6822F48072CA6001684A6922F051
:1024900001024A61202180F83A10FFF71BFC00205E
:1024A00010BD00002DE9F041044600680169E268B2
:1024B00021F44051114301612169A0680843616919
:1024C00008432168CA6841F20C639A430243CA6018
:1024D00020684169A26921F44071114341614C496E
:1024E00020686425322688423CD1FFF713F900EBBF
:1024F000C00101EB001061688900B0FBF1F7FFF744
:1025000009F900EBC00101EB00106168B0468900D9
:10251000B0FBF1F0B0FBF5F06FF01801484307EBAA
:10252000800106EB0110B0FBF5F000F0F006FFF7BC
:10253000F1F800EBC00101EB001061688900B0FB0D
:10254000F1F0B0FBF5F006EB0016FFF7E3F800EB57
:10255000C00101EB001061688900B0FBF1F7FFF7E3
:10256000D9F83BE0FFF7C6F800EBC00101EB001023
:1025700061688900B0FBF1F7FFF7BCF800EBC00120
:1025800001EB00106168B0468900B0FBF1F0B0FBD0
:10259000F5F06FF01801484307EB800106EB0110DE
:1025A000B0FBF5F000F0F006FFF7A4F800EBC00177
:1025B00001EB001061688900B0FBF1F0B0FBF5F0B1
:1025C00006EB0016FFF796F800EBC00101EB0010D8
:1025D00061688900B0FBF1F7FFF78CF800EBC001F0
:1025E00001EB001061688900B0FBF1F0B0FBF5F081
:1025F0006FF01801484307EB800108EB0110B0FBB6
:10260000F5F0216800F00F0030448860BDE8F081EB
:102610000038014090F83910212901D0022070477C
:102620008168B1F5805F016A0BD04A1C02620268C2
:1026300009785160C18C491E0904090CC1840ED06F
:1026400017E009880268C1F3080151600169002997
:10265000016A02D0491C0162ECE7891CFBE70168B2
:10266000CA6822F08002CA600068C16841F0400177
:10267000C160002070472DE9F041984617460E468C
:102680000446069D1DE0681C1BD02DB1FEF7DEFB45
:10269000A0EB0800A84214D92068C16821F4D071C9
:1026A000C1602068416921F001014161202084F866
:1026B000390084F83A00002084F838000320BDE88F
:1026C000F0812068006836EA000004D00020B8429B
:1026D000D9D00020F3E70120F9E70000054810B544
:1026E0000068C0B200F0AAFABDE810400248FFF747
:1026F00003BA000004440040AC000020FEE702E002
:1027000008C8121F08C1002AFAD17047704700207C
:1027100001E001C1121F002AFBD170472DE9F041F1
:10272000064600254FF40077DFF8388041F2883400
:1027300013E0012239464046FEF782FB0220401C8E
:10274000A042FCDB002239464046FEF779FB2146D9
:102750000220401C8842FCDB6D1CB542E9D3BDE879
:10276000F0810000000C014010B500F03DF900F0D0
:102770004FF9BDE8104000F021BC000008B1012273
:1027800000E000224FF400410148FEF759BB000071
:10279000000C0140094910B54A884AF20103424041
:1027A0004A80002092B2D40702D083EA520200E0AD
:1027B0005208401C4A800828F4DB10BD1400002099
:1027C000094B012804D002280DD139B1012206E0BD
:1027D00009B1012200E00022802101E00022402115
:1027E0001846FEF72DBB7047000C014010B50E488F
:1027F000FEF77CF90C48FEF7C7F8FDF7A6FE4FF090
:1028000066320A4BFDF7AFFD0022094BFDF7ABFD29
:10281000084A094BFDF700FD0022084BFDF7A3FD18
:10282000FDF7D3FE80B210BD2800002066664A3F47
:10283000000026409A9999999999E93F00408F4064
:102840002DE9F84F6A460121302000F0C7FC6C46A4
:1028500001213120621C00F0C1FC9DF800006A4695
:1028600045089DF8010001214708362000F0B6FC1C
:10287000621C0121372000F0B1FCBDF800606A46FF
:1028800001213A2000F0AAFC621C01213B2000F04B
:10289000A5FCBDF800906A460121282000F09EFCAE
:1028A000621C0121292000F099FC781B00EB8000BC
:1028B000BDF800A04000FDF737FE88460FFA89F109
:1028C00007460FFA86F9A1EB0900FDF72DFE0E462B
:1028D00004460FFA8AF1A1EB0900FDF725FE3A46FE
:1028E0004346FDF740FD22463346FDF7AEFDFDF7BA
:1028F0006CFE05EB850100EB410000B24FF47A71EC
:10290000884200D90846FDF720FE044A044BFDF733
:102910002AFDBDE8F84FFDF771BE00009A9999991C
:102920009999B93F2DE9F8436A460121322000F018
:1029300055FC6C4601213320621C00F04FFCA21CA8
:102940000121352000F04AFC9DF802009DF800109E
:1029500000F0030241EA02219DF8012000F00C0082
:1029600042EA8010CE10C7106A4601213C2000F0D8
:1029700035FC621C01213D2000F030FCA21C01212D
:102980003E2000F02BFCE21C01213F2000F026FC41
:10299000BDF90050BDF902806A4601212A2000F0ED
:1029A0001DFC621C01212B2000F018FCBDF9000069
:1029B000B91B401B484300EB80004100A8EB050019
:1029C000B1FBF0F006EB860100EB4100FDF7BDFD29
:1029D000034A044BFDF7C7FCBDE8F843FDF70EBE04
:1029E0009A9999999999B93F1FB507A00121006853
:1029F0000390C82203A88DE807000B462022BE21C1
:102A00000248FEF7D9FB1FBD8100000058000020DE
:102A10002DE9FF4100F05EF8002857D0002701257E
:102A200003AEC82403970096CDE901542B461F221C
:102A30003A212748FEF7C0FB3220FEF703F94F206A
:102A40008DF80C000096CDE90154012320223A2193
:102A50001F48FEF7B1FB3220FEF7F4F8C0208DF8D6
:102A60000C000096CDE90154012321223A21184897
:102A7000FEF7A2FB3220FEF7E5F88DF80C70009609
:102A8000CDE90154012323223A211148FEF794FB9A
:102A90003220FEF7D7F8F0208DF80C000096CDE933
:102AA0000154012324223A210948FEF785FB3220F4
:102AB000FEF7C8F880208DF80C000096CDE901548F
:102AC000012326223A210248FEF776FBBDE8FF816A
:102AD000580000201FB5C822022103A88DE8070076
:102AE00001230F223A210648FEF756FA9DF80C0002
:102AF000492802D0002004B010BD0120FBE70000EF
:102B0000580000202DE9F04186B08046C8220621F9
:102B100003A88DE807000123A8223A211548FEF7F3
:102B20003BFABDF90C00FDF7FFFC134E134F324684
:102B30003B46FDF78AFCFDF729FD0446BDF90E0072
:102B4000FDF7F2FC32463B46FDF77FFCFDF71EFD2C
:102B50000546BDF91000FDF7E7FC32463B46FDF7A0
:102B600074FCFDF713FDC8E90045C8F8080006B07D
:102B7000BDE8F081580000206F1283C0CA61304068
:102B80002DE9F04186B08046C822062103A88DE8D1
:102B90000700012388223A211548FEF7FDF9BDF808
:102BA0000C00FDF7D2FC134E134F32463B46FDF7A7
:102BB0004CFCFDF7EBFC0446BDF80E00FDF7C5FC30
:102BC00032463B46FDF741FCFDF7E0FC0546BDF80B
:102BD0001000FDF7BAFC32463B46FDF736FCFDF728
:102BE000D5FCC8E90045C8F8080006B0BDE8F0818A
:102BF000580000206F1283C0CA613040FEF7A4FB6A
:102C0000FFF78BFB40F6B830FEF71CF8FFF70EFB22
:102C1000FFF790FAFFF7B0FAFFF746FB04A000F0C9
:102C2000A9FAFFF7A1FD012000F0CCFAFEE70000B1
:102C300052506F77657220322E3000002DE9F0413E
:102C400007463C48A0F10A0443780370817841703C
:102C5000C2788270C770552B05D1AA2903D1782A72
:102C600001D1922F24D0A088334E411C89B206F5A1
:102C7000A3751A2823D9B0F58D7F03D8304400F806
:102C8000027CA180B6F81A01A18800F11C028A42D8
:102C900001D16288E2801D30884212D17018E1882B
:102CA00030F8040C40BA88420BD100F047F808E035
:102CB0000020A0804FF6FF706080BDE8F0812F54A7
:102CC000A1803846FFF766FDA0881B28F5D128684B
:102CD000E97800BA20F0FF00084370616868E9797C
:102CE00000BA20F0FF0008433061A868E97A00BA12
:102CF00020F0FF000843F060E868E97B00BA20F0AC
:102D0000FF000843B0602869E97C00BA20F0FF00AA
:102D1000084370606869E97D00BA20F0FF0008434D
:102D20003060287E3076B5F8190040BAA6F81A014E
:102D3000C3E700001E000020080200202DE9F0413A
:102D4000274CC4B004F58E7022462368D2E90112E4
:102D50000568AB4205D14568A94202D1806882422C
:102D600005D0002B2DD100292BD1002A29D1207E7E
:102D70001D4C1C4D4FF4867804F1100704F51176B4
:102D8000FE2821D0FF2804D044B0BDE8F04100F077
:102D90002DB800F005FAFF2020762978A4F81A1142
:102DA000002003E0325C2318401C5A768842F9DD8B
:102DB000424639466846FDF7C5F994E80F0000F031
:102DC000BDF944B0BDE8F0812978A4F81A110020BB
:102DD00003E0325C2318401C5A768842F9DDE7E7AD
:102DE0000802002014000020EC0000202DE9F0472C
:102DF0006F4D704C0226297EC6B04FF4867A04F1DE
:102E0000100901291BD1FFF71BFD0746FFF78AFDBB
:102E100080463846FDF7A6FB607667494046FDF7D9
:102E2000A3F9FDF79FFBA076A4F81A615246494624
:102E30006846FDF787F994E80F0000F07FF9287ED7
:102E400002284CD143A8FFF75DFE439800F57A5065
:102E50004390449800F57A504490459800F57A5094
:102E600045904398000A60764398A0764498000AFB
:102E7000E076449820774598000A60774598A077D7
:102E80006846241DFFF77CFE9DE8070043AB83E8FE
:102E9000070000F57A50439001F57A50449002F50E
:102EA0007A50459043985246000AE076439820773E
:102EB00044984946000A60774498A0774598000AEC
:102EC000E077459884F820000C20A4F816016846A5
:102ED000FDF738F9241F94E80F0000F02FF9287E41
:102EE0000027032810D1A87E697E00EB0120FFF7A0
:102EF00015FCA4F81A71524649466846FDF722F9B6
:102F000094E80F0000F01AF9287E04280DD1687E9D
:102F1000FFF734FCA4F81A71524649466846FDF79B
:102F200011F994E80F0000F009F9287E05280FD167
:102F3000FFF75CFC010A6176A076A4F81A6152469C
:102F400049466846FDF7FEF894E80F0000F0F6F8F1
:102F5000287E06280ED1A97E687EFFF731FCA4F8F2
:102F60001A71524649466846FDF7ECF894E80F009E
:102F700000F0E4F8287E072817D1002000F022F99D
:102F80009620FFF7CBFB012000F01CF9A97E687E9C
:102F9000FFF716FCA4F81A71524649466846FDF739
:102FA000D1F894E80F0000F0C9F846B0BDE8F0870A
:102FB00008020020EC0000200000FE4270B5144A18
:102FC00014484AF2010511680B6803604B684360BE
:102FD0008968816010484FF6FF71018054680021B4
:102FE0000388625C5A40028000220388DE0702D018
:102FF00085EA530300E05B08521C0380082AF4DBD7
:10300000491C0C29ECDBC3F30B01018070BD0000EF
:103010000C000020240300201C00002010B50446F2
:10302000FFF7B8FB2046BDE8104000F031B870B59E
:1030300004460D461646100EFFF7F0FFC6F3074094
:10304000FFF7ECFFC6F30720FFF7E8FFF0B2FFF74A
:10305000E5FF280EFFF7E2FFC5F30740FFF7DEFFAD
:10306000C5F30720FFF7DAFFE8B2FFF7D7FF200E1E
:10307000FFF7D4FFC4F30740FFF7D0FFC4F30720E6
:10308000FFF7CCFFE0B2BDE87040FFF7C7BF00001C
:1030900001B54FF47A73012269460248FEF71BFE20
:1030A00008BD0000AC0000200FB470B5204D002416
:1030B000285DFFF7EDFF641CE4B2042CF8D31D4D2E
:1030C0004FF6FF7068801C4807C8FFF7B0FF04ABDD
:1030D00093E80700FFF7ABFF9DF82800FFF79EFF7E
:1030E000BDF82A41200AFFF799FFE0B2FFF796FFEB
:1030F000002404AE05E03019407EFFF78FFF641C0A
:10310000A4B2BDF82A01A042F5D86888000AFFF7EA
:10311000BFFFA878FFF7BCFF0020FFF7B9FF002032
:10312000FFF7B6FF70BC00205DF814EBFFF7B0BFEF
:10313000FC31000814000020240300200FB40C48C8
:1031400000B5C3B0C168449101694591406946909A
:103150004FF4867248A96846FCF7F4FF0DF5887CA9
:103160009CE80F00FFF7A0FF43B05DF814FB0000E0
:103170000802002030B5084A0021084C1170435C59
:10318000A3F120055F2D05D263544B1C491C13701D
:103190001E29F4DB30BD00001400002030030020A5
:1031A00010B50749002042F210740B8905E0224651
:1031B0000221491C9142FCD3401C9842F7D310BD18
:1031C0001400002008B1012200E000224FF4005159
:1031D0000148FDF735BE0000001001400EB5C823C0
:1031E000009289B2CDE9011302460123BE210248B3
:1031F000FDF7D2FE0EBD00005800002055AA7892BF
:103200000000000000000000010203040607080996
:103210000000000001020304383200080000002012
:1032200028000000FE260008603200082800002068
:10323000480700000E2700080100000010000000F1
:1032400000000000E8F7FF1FE8F7FF1F0000FFFF86
:1032500000000000000000000000000000A24A047E
:04000005080000ED02
:00000001FF
